{
    "contractName": "MiniGame",
    "abi": [
        {
            "anonymous": false,
            "inputs": [
                {
                    "indexed": false,
                    "internalType": "address",
                    "name": "_wallet",
                    "type": "address"
                },
                {
                    "indexed": false,
                    "internalType": "string",
                    "name": "_id",
                    "type": "string"
                }
            ],
            "name": "SM_send_data",
            "type": "event"
        },
        {
            "inputs": [
                {
                    "internalType": "string",
                    "name": "_id",
                    "type": "string"
                }
            ],
            "name": "register",
            "outputs": [],
            "stateMutability": "nonpayable",
            "type": "function"
        },
        {
            "inputs": [
                {
                    "internalType": "uint256",
                    "name": "",
                    "type": "uint256"
                }
            ],
            "name": "userArr",
            "outputs": [
                {
                    "internalType": "string",
                    "name": "_id",
                    "type": "string"
                },
                {
                    "internalType": "address",
                    "name": "_wallet",
                    "type": "address"
                }
            ],
            "stateMutability": "view",
            "type": "function"
        }
    ],
    "bytecode": "608060405234801561001057600080fd5b50610494806100206000396000f3fe608060405234801561001057600080fd5b50600436106100365760003560e01c8063057d77811461003b578063f2c298be14610065575b600080fd5b61004e610049366004610351565b61007a565b60405161005c9291906103e3565b60405180910390f35b6100786100733660046102a0565b61013f565b005b6000818154811061008a57600080fd5b90600052602060002090600202016000915090508060000180546100ad9061040d565b80601f01602080910402602001604051908101604052809291908181526020018280546100d99061040d565b80156101265780601f106100fb57610100808354040283529160200191610126565b820191906000526020600020905b81548152906001019060200180831161010957829003601f168201915b505050600190930154919250506001600160a01b031682565b60408051808201909152818152336020808301919091526000805460018101825590805282518051849360029093027f290decd9548b62a8d60345a988386fc84ba6bc95484008f6362f93160ef3e563019261019f928492910190610207565b5060209190910151600190910180546001600160a01b0319166001600160a01b039092169190911790556040517fc7e1b2507dea4b1d31dddee6a5817c84085c1b7be8eed96a9901eda88e2d0392906101fb90339085906103b7565b60405180910390a15050565b8280546102139061040d565b90600052602060002090601f016020900481019282610235576000855561027b565b82601f1061024e57805160ff191683800117855561027b565b8280016001018555821561027b579182015b8281111561027b578251825591602001919060010190610260565b5061028792915061028b565b5090565b5b80821115610287576000815560010161028c565b6000602082840312156102b257600080fd5b813567ffffffffffffffff808211156102ca57600080fd5b818401915084601f8301126102de57600080fd5b8135818111156102f0576102f0610448565b604051601f8201601f19908116603f0116810190838211818310171561031857610318610448565b8160405282815287602084870101111561033157600080fd5b826020860160208301376000928101602001929092525095945050505050565b60006020828403121561036357600080fd5b5035919050565b6000815180845260005b8181101561039057602081850181015186830182015201610374565b818111156103a2576000602083870101525b50601f01601f19169290920160200192915050565b6001600160a01b03831681526040602082018190526000906103db9083018461036a565b949350505050565b6040815260006103f6604083018561036a565b905060018060a01b03831660208301529392505050565b600181811c9082168061042157607f821691505b6020821081141561044257634e487b7160e01b600052602260045260246000fd5b50919050565b634e487b7160e01b600052604160045260246000fdfea264697066735822122053f63c153e206a246bce00e159e6d1d9a7b1418eb726cd4145f718f4883c31cd64736f6c63430008070033",
    "sourcePath": "f:/LEARN/BC/Minigame/smart-contract/miniGame.sol",
    "compiler": {
        "name": "solc",
        "version": "0.8.7+commit.e28d00a7"
    },
    "functionHashes": {
        "register(string)": "f2c298be",
        "userArr(uint256)": "057d7781"
    },
    "gasEstimates": {
        "creation": {
            "codeDepositCost": "234400",
            "executionCost": "275",
            "totalCost": "234675"
        },
        "external": {
            "register(string)": "infinite",
            "userArr(uint256)": "infinite"
        }
    }
}